M0700000000184020200818061137
E01    999100100       ACIDE PHOSPHORIQUE 75% CONTAINER 1000L            0100000001000000000000000000001000000KGM
E01   3046208001       MAYONNAISE   FLACON NF 750ML  REMIA               0001500000055000871044853094700000750KGM
E01    420620800       KETCHUP SPLE 750ML  REMIA                         0000100000612000000000000000000009000KGM
E01   3619102200       SAUCE BURGER 50 CL COVINOR                        0001200000102000333512241332000000500KGM
E01   1002601201       MOUTARDE DE DIJON 50CL COVINOR                    0000600000210000333512111007700000500KGM
E01   2036302200       VINAIGRE ALCOOL BLANC 8ø 100CL COVINOR            0001200000060000333512212001300001000KGM
E01   1002652200       MOUTARDE DIJON FLACON SOUPLE COVINOR 265G         0001500000140000333512113429500000265KGM
E01   4206208001       KETCHUP SPLE NF 750ML  REMIA                      0001500000055000871044853095400000750KGM
E01   4509102200       SAUCE ALGERIENNE 50 CL COVINOR                    0001200000102000333512241389400000500KGM
E01   2036405400       VINAIGRE D ALCOOL 8% 150CL ECO+                   0001200000045000345097015115300001500KGM
E01   2628305100       VINAIGRE CITRON 6ø 75CL BELLE FRANCE              0000600000100000325856116005200000750KGM
E01   2508201700       VINAIGRE DE CIDRE 5ø 50CL CASINO                  0000600000130000322247257338800000500KGM
E01   2638305100       VINAIGRE ECHALOTE 6ø 75CL BELLE FRANCE            0000600000100000325856118017500000750KGM
E01   4309101800       SAUCE CRUDITE NATURE 500ML SYSTEME U              0001200000102000325622151032400000500KGM
E01   2638301600       VINAIGRE ECHALOTE 6ø 75CL  CORA                   0000600000100000325798005325100000750KGM
E01    999210278       SEAU JAUNE 10L Ref JET 107 Jaune 238 PP INV       0000100000001000000000000000000001000KGM
E01    999210279       COUVERCLE SEAU JAUNE 10L Ref DETP 267 Jaunre 238PP0000100000001000000000000000000001000KGM
E01   2508305404       VINAIGRE DE CIDRE BIO  5% 75CL REPERE             0000600000100000356470711739500000750KGM
E01   2036301200       VINAIGRE ALCOOL BLANC 8ø 100CL PPAUCHAN           0001200000060000325456001021500001000KGM
E01   4609101700       VINAIGRETTE NATURE 500ML  CASINO                  0001200000102000322247148206300000500KGM
E01   1102509900       MOUTARDE A L'ANCIENNE  300 G JAPON                0001200000153000333512113428800000300KGM
E01   4349101700       SAUCE CRUDITE FINES HERBES 500ML  CASINO          0001200000102000322247263560400000500KGM
E01   2618108700       VINAIGRE ESTRAGON 6ø 25CL   ALBERT HEIJN          0000600000288000871040027864100000250KGM
E01    999220329       BOUTEILLE VERRE FLUIDE CASINO  75 CL              0000100000001000000000000000001000000KGM
E01    999640106       AD WA PAV 12*50CL SAUCE CESAR DILECTA             0000100000001000000000000000000179000KGM
E01   2608201700       VINAIGRE DE VIN 7ø ELEVE 50CL  CASINO             0000600000130000322247257332600000500KGM
E01   2508301700       VINAIGRE DE CIDRE 5 NORMANDIE 75CL CASINO         0000600000100000322247115336900000750KGM
E01   2608301700       VINAIGRE DE VIN 7 ELEVE 75CL  CASINO              0000600000100000322247115212600000750KGM
E01   2608303700       VINAIGRE DE VIN ROUGE ELEVE 7ø 75CL ALDI BOURG    0000600000100000000002602006300000750KGM
E01   2608301500       VINGRE  VIN ROUGE ELEVE 7ø 75CL WINAROM           0000600000100000000002040396100000750KGM
E01   2508205104       VINAIGRE DE CIDRE BIO  5% 50CL BELLE FR           0000600000130000325856118013700000500KGM
E01   2508201104       VINAIGRE DE CIDRE BIO 5ø 50CL CARREFOUR           0000600000130000324541184208600000500KGM
E01   2638305400       VINAIGRE ECHALOTE 6ø 75CL RUSTICAREP              0000600000100000356470001333500000750KGM
E01   2508305100       VINAIGRE DE CIDRE NORMANDIE 5ø 75CL BELLE FRANCE  0000600000100000325856118011300000750KGM
E01   2508302100       VINAIGRE DE CIDRE 5ø 75CL   MONOPRIX              0000600000100000324865004291000000750KGM
E01   2608302100       VINAIGRE DE VIN 7ø ELEVE 75CL MONOPRIX            0000600000100000324865004290300000750KGM
E01   4898293700       VINGRETTE BIPH BALSA & VVRGE ECHALOT 500ML DILECTA0001200000070000300002606395900000500KGM
E01    999140102       SEL ALIMENTAIRE SACS 25 KG                        0000100000000000000000000000001000000KGM
Z0100001639
